:100000000C94D4000C9447230C9474230C94FC009F
:100010000C94FC000C94FC000C94FC000C94FC0070
:100020000C94FC000C94FC000C94FC000C94FC0060
:100030000C94FC000C94FC000C94FC000C94FC0050
:100040000C94A1230C94FC000C94D8210C941B223A
:100050000C94FC000C94FC000C94FC000C94FC0030
:100060000C94FC000C94FC001F0AF809240AFC09FB
:10007000FC09FC09FC09290A310AFC09FC09380AB7
:100080003C0A1A0A651AE31A271BB51BFA1D061C3F
:10009000D81CF31CB51A3A002074006D630054524A
:1000A000454B313030302054616720004C50534D67
:1000B000696E692076312E30205365747570003A70
:1000C0003078002C200020483A002C200044495071
:1000D000204C3A0044574D206661696C656400000D
:1000E0000099599959EB518F421E45142EFF7FEB11
:1000F00051F5283333E13A703DE13AC235852BC2E0
:10010000353333C235C235AE47E13A5138A33051A9
:10011000386B003B31BE003B335E013B3596023B02
:10012000372D001A3152001A339A001A351D011A60
:1001300037405C0000A05C0400C06C0800805C04D8
:1001400000E03F1E00E07D1E0000000007000201ED
:10015000000003040600000000000000000102048B
:100160000810204080010204081020010204081039
:100170002004040404040404040202020202020330
:1001800003030303030000000023002600290000EE
:10019000000000250028002B00000000002400279C
:1001A000002A00006503D12211241FBECFEFD8E042
:1001B000DEBFCDBF12E0A0E0B1E0E8E1F1E502C0B2
:1001C00005900D92AC37B107D9F715E0ACE7B2E076
:1001D00001C01D92AF3EB107E1F711E0C8EAD1E0DE
:1001E00004C02297FE010E943D28C43AD107C9F7F6
:1001F0000E94D11F0C948A280C94000082E00E9477
:100200001A250E94A40D82E00E941A258130C9F3AC
:10021000089561E084E00E94AE2460E084E00E94E2
:10022000E72461E070E080E090E00E94182461E043
:1002300084E00E94E72462E084E00E94AE240895F6
:10024000ADE2B0E0E6E2F1E00C941328182F0E9432
:10025000A1100E94A8100E9409010E948811603319
:1002600071408A4C9E4D39F064ED70E088E395E072
:100270000E94592066C00E946918882309F461C051
:1002800068EE75E189E894E10E9461090E949B1083
:1002900082E490E40E949E19212F207130E0220F09
:1002A000331F220F331F812F8072280F311D412FE2
:1002B000407450E05595479555954795240F351F47
:1002C000C90124E0969587952A95E1F70E94551F6C
:1002D00081E090E00E94361184E2E3E0F1E0DE018B
:1002E000119601900D928A95E1F711FB662760F94E
:1002F00012FD6E5FE1E0F0E0EC0FFD1F89E0689F0A
:10030000E00DF11D112480818DA383818EA3818155
:100310008FA385818AA786818BA7878190859DA7DA
:100320008CA7828188A7848189A72AE0629FB00177
:100330001124675D7E4FCE0185960E948B1181E06E
:1003400001C080E0AD96E3E00C942F2860E082E0ED
:100350000E94E72460E082E00E94AE2462E370E045
:1003600080E090E00E94182443E050E06EEF70E0DF
:1003700080E00E9427230895883C23E0920708F03C
:1003800042C0823623E0920708F03FC08F3023E05E
:100390009207E8F58C3C22E09207D8F5833922E0F9
:1003A0009207C8F5833622E09207B8F5893322E038
:1003B0009207A8F5853122E0920798F58B3E21E05F
:1003C000920788F5823D21E0920778F5893B21E08C
:1003D000920768F5823A21E0920768F48E3821E0AE
:1003E000920758F48B3721E0920748F48936914000
:1003F00040F08EE008958BE008958CE008958DE044
:1004000008958FE0089580E0089581E0089582E0E6
:10041000089583E0089584E0089585E0089586E0D6
:10042000089587E0089588E0089589E008958AE0B6
:100430000895A0E0B0E0EFE1F2E00C940F2861E055
:1004400084E00E94AE2460E084E00E94E72481E022
:100450000E94432561E083E00E94AE2461E083E0D6
:100460000E94E72460E084E10E94AE2460E084E121
:100470000E94E72460E085E10E94AE2460E085E10F
:100480000E94E72462E370E080E090E00E9418247C
:1004900084E10E9446258C0185E10E944625EC01FD
:1004A000C8010E94BC01E82ECE010E94BC01D82EDA
:1004B00080E1D89E90011124FE2CF22A61E084E0B4
:1004C0000E94E72462E084E00E94AE246DEC70E0BC
:1004D00088E395E00E9417204AE050E0B80188E3E5
:1004E00095E00E9423216AEC70E088E395E00E9489
:1004F00017204AE050E06E2D88E395E00E94042129
:1005000066EC70E088E395E00E9417204AE050E036
:10051000BE0188E395E00E94232163EC70E088E34C
:1005200095E00E9417204AE050E06D2D88E395E0A9
:100530000E9404216FEB70E088E395E00E94172091
:1005400040E150E06F2D88E395E00E940C2160E0CF
:1005500083E00E94AE248F2DCDB7DEB7E7E00C9488
:100560002B28CF92DF92EF92FF92CF936B017C0109
:10057000C42F67E271E088E395E00E943A20C7FD4E
:1005800017C024E0C202C0011124A701960104C0D3
:1005900056954795379527958A95D2F7622F6F70B4
:1005A00040E150E088E395E00E940421C150E7CF8C
:1005B000CF91FF90EF90DF90CF900895CF93DF938E
:1005C000A8950E94CB180E943B11892B09F47AC090
:1005D0000E945F1F089709F075C00E945A1FEC0126
:1005E0006BE970E088E395E00E94172080E090E0DE
:1005F0000E948712BC01882777FD8095982F48E0DC
:100600000E94B10281E090E00E948712BC0188271D
:1006100077FD8095982F48E00E94B10282E090E03B
:100620000E948712BC01882777FD8095982F48E0AB
:100630000E94B10283E090E00E948712BC018827EB
:1006400077FD8095982F48E00E94B1020E948412A5
:10065000BC0180E090E042E00E94B1020E94801262
:10066000BC01882777FD8095982F42E00E94B10257
:100670000E944611BC01882777FD8095982F48E09D
:100680000E94B10268E970E088E395E00E941720BB
:10069000BE01677077274AE050E088E395E00E944A
:1006A000232166E970E088E395E00E9417200E940C
:1006B0004111BC016F7077274AE050E088E395E074
:1006C0000E94DD20DF91CF91089561E08CE792E0F8
:1006D0000E94BC1F0895A1E0B0E0E1E7F3E00C94B4
:1006E0001328162F682F660F8CE792E049830E942B
:1006F0008A1F612F8CE792E00E94AC1F4981642F12
:100700008CE792E00E94AC1F8CE792E00E946C1F85
:100710002196E3E00C942F28CF93A89588E10FB69B
:10072000F89480936000109260000FBE40E052EC9D
:1007300061E070E088E395E00E9456226CEA70E088
:1007400088E395E00E94592042E867E389E60E9429
:100750006B030E941902C82F21E030E030930101A1
:10076000209300010E94D40361E089E00E94AE243E
:1007700061E089E00E94E7248C2F0E9420016EE94D
:1007800070E088E395E00E9417200E945A1FBC0188
:10079000677077274AE050E088E395E00E942A21BD
:1007A0000E94A601CF91089561E08AE00E94E724AB
:1007B00061E08AE00E94AE248CB580618CBD8CB56E
:1007C00080648CBD61E08DE00E94AE2461E08BE02E
:1007D0000E94AE2408952CB5982F93702C7F922BF5
:1007E0009CBD9DB582FB882780F99E7F982B9DBD7F
:1007F00008956091AB027091AC028091AD0290912E
:10080000AE020895A3E0B0E0E8E0F4E00C94122812
:1008100061157105E9F0806C898360387105A0F07D
:10082000862F80688A83660F672F661F770B719506
:100830006B8383E090E0BE016F5F7F4F0E94C80F23
:100840002396E4E00C942E286A8382E090E0F3CFB4
:100850008068898381E090E0EECF0F931F93FA01C7
:100860009A01280F391F2130344080F49C01225016
:10087000310940E050E08B01BF0189E090E00E9427
:10088000020480E090E01F910F9108958FEF9FEF99
:10089000FACFA3E0B0E0EFE4F4E00C941228611585
:1008A0007105E9F08064898360387105A0F0862FB6
:1008B00080688A83660F672F661F770B71956B833D
:1008C00083E090E0BE016F5F7F4F0E94311023965E
:1008D000E4E00C942E286A8382E090E0F3CF8983D1
:1008E00081E090E0EFCF0F931F939B01BA0140E0AE
:1008F00050E08C0181E190E00E9449041F910F912A
:1009000008950F931F938C0125E030E040E050E004
:1009100060E070E087E190E00E9449041F910F9130
:1009200008950F931F938C0125E030E040E050E0E4
:1009300060E070E085E190E00E9449041F910F9112
:100940000895A4E0B0E0E7EAF4E00C9412288E01E8
:100950000F5F1F4F24E030E040E050E00E94490468
:10096000892B41F06FEF7FEFCB012496E4E00C94EC
:100970002E2827C06C81862F90E0A0E0B0E0915037
:10098000A109B109BA2FA92F982F88272B81820F8F
:10099000911DA11DB11DBA2FA92F982F88272A813B
:1009A000820F911DA11DB11D6627782F892F9A2FC7
:1009B0002981620F711D811D911D2496E4E00C9424
:1009C0002E2860E070E080E090E00E94A10408958D
:1009D000A2E0B0E0EEEEF4E00C9412288E010F5F7E
:1009E0001F4F22E030E040E050E00E944904892B94
:1009F00039F08FEF9FEF2296E4E00C942E280BC085
:100A00008A8190E0982F88272981820F911D229654
:100A1000E4E00C942E28A2E0B0E0E1E1F5E00C94D3
:100A2000122849835A838E010F5F1F4F22E030E066
:100A300040E050E00E9402042296E4E00C942E284C
:100A40009093930280939202AC0164E078E18EE28D
:100A500090E00E940B050895909395028093940274
:100A6000AC0160E070E088E190E00E940B05089521
:100A7000A4E0B0E0EEE3F5E00C94122829833A8379
:100A80004B835C838E010F5F1F4F24E030E040E01A
:100A900050E00E9402042496E4E00C942E280F9368
:100AA0001F93CF93DF93EC018C0121E030E040E015
:100AB00050E06BE070E08AE290E00E94020429813D
:100AC0003A814B815C8160E070E08EE190E00E94B1
:100AD0003805DF91CF911F910F9108959C0140E05F
:100AE00050E0CB01A0E0B0E066E1880F991FAA1F9B
:100AF000BB1F6A95D1F7282B392B4A2B5B2B809192
:100B00008E0290918F02A0919002B0919102282BB9
:100B1000392B4A2B5B2B60E070E088E090E00E946C
:100B2000380580E090E00895CF93DF93EC0160E01A
:100B300070E084E090E00E94A1049B01AC0120974A
:100B4000A1F42E7F4774507F20939802309399022E
:100B500040939A0250939B0260E070E084E090E042
:100B60000E943805DF91CF91089521703E7F477430
:100B7000507FCE018E7F91708160A0E0B0E0282B85
:100B8000392B4A2B5B2BE0CFA2E0B0E0EAECF5E09A
:100B90000C94122889839A838E010F5F1F4F22E0E5
:100BA00030E040E050E062E070E083E090E00E94DE
:100BB00002042296E4E00C942E28A2E0B0E0E3EEDA
:100BC000F5E00C94122889839A838E010F5F1F4FE2
:100BD00022E030E040E050E060E070E083E090E050
:100BE0000E9402042296E4E00C942E280F931F9397
:100BF0008C0128E030E040E050E060E070E081E00F
:100C000090E00E9402041F910F910895A4E0B0E0CB
:100C1000ECE0F6E00C9412287A8369838E010F5F72
:100C20001F4F22E030E040E050E064E070E08DE2F1
:100C300090E00E94020483E089838E010F5F1F4FC2
:100C400021E030E040E050E066E070E08DE290E0CE
:100C50000E94020419828E010F5F1F4F21E030E0D5
:100C600040E050E066E070E08DE290E00E94020417
:100C70006AE070E08DE290E00E94A1042496E4E036
:100C80000C942E28CF93DF93EC0164E070E086E3B0
:100C900090E00E94A1049B01AC01CD2B51F4377F61
:100CA00064E070E086E390E00E943805DF91CF9128
:100CB00008953860F5CFA3E0B0E0E1E6F6E00C94EB
:100CC00010287C018DE68B838E010D5F1F4F21E084
:100CD00030E040E050E066E078E08EE290E00E9494
:100CE000020487E08983E114F10499F486E18A83A0
:100CF0008E010F5F1F4F22E030E040E050E066E0E1
:100D000078E18EE290E00E9402042396E6E00C94E3
:100D10002C2886E0ECCFA1E0B0E0E1E9F6E00C940D
:100D200009287C01DC019C901596EC911597F0E068
:100D3000EE0FFF1FE152FF4F25913491590111969B
:100D4000CC90D12CB1E0CB1AD108D092AA02C0929B
:100D5000A9027C2CE4E0882483949E1619F0F7E025
:100D60009F12812C90928B02D70117964C91809103
:100D7000980290919902A0919A02B0919B02411120
:100D800010C0A0648093980290939902A0939A0255
:100D9000B0939B02590133E0B694A7943A95E1F7DA
:100DA00009C0AF7B8093980290939902A0939A0216
:100DB000B0939B02F701808580938C022085822F5F
:100DC00090E0A0E0B0E0AC013327222722273327B0
:100DD000437055278091980290919902A0919A02B0
:100DE000B0919B02282B392B4A2B5B2B2093980226
:100DF0003093990240939A0250939B0260E070E016
:100E000084E090E00E943805A50164E078E28EE27B
:100E100090E00E940B05DD24C6010E945B06E92DCF
:100E2000F0E0E357FE4F0081A02EB12CF5E00F9FBC
:100E30008001112401591E4F25E030E040E050E0D0
:100E400067E070E08BE290E00E9402040EE611E0A1
:100E500021E030E040E050E06EE070E08BE290E0B6
:100E60000E940204082D10E004591E4F21E030E0DA
:100E700040E050E06BE070E088E290E00E94020405
:100E8000F501EE0FFF1FEE0FFF1FEF5CFE4F2591E8
:100E90003591459154916CE070E088E290E00E94B9
:100EA0003805D7011696EC91169717968C91F0E0BD
:100EB000E80FF11DE80FF11DEE0FFF1FEB5AFE4F7B
:100EC0004081518162E070E087E290E00E940B0572
:100ED000F601EE0FFF1FEF5AFE4F4081518164E093
:100EE00070E087E290E00E940B05F7018781811195
:100EF00009C044E650E066E070E087E290E00E94BE
:100F00000B051FC08281843029F480E1898340E190
:100F100050E004C088E2898340E250E066E070E07F
:100F200087E290E00E940B058E010F5F1F4F21E0CA
:100F300030E040E050E066E270E087E290E00E943E
:100F40000204772019F0E1E1F1E002C0E1E2F1E012
:100F5000D70113968C91B4E08B9FE00DF11D112405
:100F6000259135914591549168E070E087E290E0D9
:100F70000E943805F701428553854134F0E15F074F
:100F800031F060E270E087E290E00E940B05D7014B
:100F90001A968D919C911B97892B41F441E450E165
:100FA00060E270E087E290E00E940B05209164010E
:100FB0003091650140916601509167016CE070E0ED
:100FC00083E290E00E943805F601EE0FFF1FE8591A
:100FD000FE4F4081518164E070E083E290E00E9426
:100FE0000B05F7018681882389F0078110E00F59EE
:100FF0001E4F21E030E040E050E060E070E081E230
:1010000090E00E94020461E073E002C060E070E0E2
:10101000D70115962C9130E040E050E0EBE1220F33
:10102000331F441F551FEA95D1F7892D8F70282B48
:10103000892D90E0A0E0B0E0F4E0880F991FAA1F8E
:10104000BB1FFA95D1F79927AA27BB27282B392B45
:101050004A2B5B2BF701818190E0A0E0B0E0072EE6
:1010600072E1880F991FAA1FBB1F7A95D1F7702DC7
:1010700088279927AC70BB27282B392B4A2B5B2B51
:10108000848190E0A0E0B0E0E6E1880F991FAA1FFC
:10109000BB1FEA95D1F788279927A07CB770282B2A
:1010A000392B4A2B5B2B872E912CA12CB12CF4E1F0
:1010B000880C991CAA1CBB1CFA95D1F72829392940
:1010C0004A295B29862F90E0A0E0B0E061E1880F1B
:1010D000991FAA1FBB1F6A95D1F7282B392B4A2BC2
:1010E0005B2B60E070E08FE190E00E943805D70153
:1010F00017962C91179730E040E050E07DE0220FEA
:10110000331F441F551F7A95D1F7306811968C9183
:10111000119712969C91892B482B20938E02309325
:101120008F02409390025093910260E070E088E05B
:1011300090E00E94380580E090E02196EDE00C946C
:101140002528CF93DF93EC0160E070E084E090E02D
:101150000E94A104DC01CB01CD2BA1F4A4608093FB
:10116000980290939902A0939A02B0939B029C01DB
:10117000AD0160E070E084E090E00E943805DF910E
:10118000CF910895AB7FEBCF892BE1F4809198024A
:1011900090919902A0919A02B0919B0290618093E4
:1011A000980290939902A0939A02B0939B02109296
:1011B00097029C01AD0160E070E084E090E00E9445
:1011C000380508958091980290919902A0919A0211
:1011D000B0919B029F7E8093980290939902A09376
:1011E0009A02B0939B0221E0209397029C01AD01EB
:1011F00060E070E084E090E00E9438050895A1E08E
:10120000B0E0E5E0F9E00C941228892B21F58091FB
:10121000980290919902A0919A02B0919B02BF7D91
:101220008093980290939902A0939A02B0939B02A4
:101230008B2F89838E010F5F1F4F21E030E040E04C
:1012400050E063E070E084E090E00E9402042196A8
:10125000E4E00C942E288091980290919902A0913C
:101260009A02B0919B02B062809398029093990287
:10127000A0939A02B0939B028B2FDBCFCF92DF9289
:10128000EF92FF926B017C0160E070E08AE190E0F8
:101290000E94A1049B01AC0122273327407F8FE0ED
:1012A000E822FF242C293D294E295F2960E070E0C7
:1012B0008AE190E00E943805FF90EF90DF90CF9098
:1012C00008959093B0028093AF027093B20260933E
:1012D000B1020895A2E0B0E0E0E7F9E00C94122832
:1012E0008E010F5F1F4F22E030E040E050E060E0F1
:1012F00070E080FD19C086E290E00E9449048A8176
:101300008B7E8A838E010F5F1F4F22E030E040E02A
:1013100050E060E070E086E290E00E9402042296D5
:10132000E4E00C942E2847C086E290E00E94490435
:101330008A81837C84618A838E010E5F1F4F21E046
:1013400030E040E050E061E070E086E290E00E9432
:1013500002048E010F5F1F4F21E030E040E050E0BB
:1013600062E070E086E390E00E944904898184682D
:1013700089838E010F5F1F4F21E030E040E050E095
:1013800062E070E086E390E00E94020480E18983DD
:1013900081E08A838E010F5F1F4F22E030E040E042
:1013A00050E068E270E086E390E00E94020422963A
:1013B000E4E00C942E28A2E0B0E0E1EEF9E00C9419
:1013C00010287C018E010F5F1F4F22E030E040E0CB
:1013D00050E060E070E086E390E00E9449048EE017
:1013E000E816F10448F4F701EC5CFF4F0C943B283D
:1013F00019828A818E7F8A838E010F5F1F4F21E0C1
:1014000030E040E050E060E070E086E390E00E9471
:1014100002048E010E5F1F4F21E030E040E050E0FB
:1014200061E070E086E390E00E9402042296E6E02C
:101430000C942C2889818F7C80628983DDCF8981FF
:101440008C7F81608983D8CF89818C7F82608983FA
:10145000D3CF8981837B886489838A8180688A83EA
:10146000CBCF8981837B89838A818F778A83C4CF1D
:101470008A8182608A83C0CF8A818D7F8A83BCCF34
:10148000A4E0B0E0E6E4FAE00C94122883E08C8358
:1014900081E08B838E010D5F1F4F22E030E040E042
:1014A00050E060E070E086E390E00E940204198260
:1014B00080E88A838E010F5F1F4F22E030E040E01A
:1014C00050E066E070E08DE290E00E94020488EE59
:1014D00093E00E943E2481E090E00E94DB0980E0DE
:1014E00090E02496E4E00C942E28A2E0B0E0EBE734
:1014F000FAE00C940F287C0184E08A831092A70202
:10150000109297021092AA021092A9021092A102C0
:101510001092AB021092AC021092AD021092AE0289
:101520001092A8021092B0021092AF021092B20272
:101530001092B1020E94E10460937F0270938002D6
:101540008093810290938202603371408A4C9E4D59
:1015500009F0A6C080E090E00E94DB098E010E5FDA
:101560001F4F21E030E040E050E060E070E084E2B6
:1015700090E00E9402046EE170E080E090E00E9442
:101580000606D62E70938D02E3FE0EC064E070E076
:1015900080E090E00E9406066093AB027093AC027C
:1015A0008093AD029093AE028091AB02882381F0CC
:1015B00082E089838E010F5F1F4F21E030E040E021
:1015C00050E062E170E08DE290E00E94020408C009
:1015D0001092AB021092AC021092AD021092AE02C9
:1015E00066E070E080E090E00E940606609383026F
:1015F00070938402809385029093860267E070E086
:1016000080E090E00E940606609387027093880253
:101610008093890290938A02E0FE06C08D2D8F711F
:1016200080939602811105C080916E018F71809325
:101630009602F3FE03C00E94400A0EC065E070E00F
:1016400086E390E00E94E804AC015D7F65E070E015
:1016500086E390E00E940B0581E090E00E94DB09A8
:1016600060E070E084E090E00E94A1046093980242
:101670007093990280939A0290939B0260E070E0CD
:1016800086E290E00E94A1049B01AC01456060E00D
:1016900070E086E290E00E94380580E090E002C0B1
:1016A0008FEF9FEF2296E7E00C942B289B01AC0173
:1016B00061E070E08AE090E00E9438050895A1E0C2
:1016C000B0E0E5E6FBE00C940F28D82E8270D1FC48
:1016D00038C09E012F5F3F4F7901D0FE1EC086604B
:1016E0008983870121E030E040E050E060E070E075
:1016F0008DE090E00E94020463E070E08FE090E0F3
:101700000E94E80488709470892B81F580E090E055
:101710002196E7E00C942B283EC0826089838701E4
:1017200021E030E040E050E060E070E08DE090E0EB
:101730000E94020480E090E02196E7E00C942B28C0
:101740002AC080E88983CE0101967C018C0121E0CA
:1017500030E040E050E060E070E08DE090E00E941A
:10176000020481E08093A8028981B7CF80E4898355
:1017700021E030E040E050E060E070E08DE090E09B
:101780000E94020480E090E00E9442061092A802AB
:101790008FEF9FEFD1CFA2E0B0E0E1EDFBE00C9442
:1017A00012288E010E5F1F4F21E030E040E050E034
:1017B00063E070E08FE090E00E9449049A81492F35
:1017C000407850E060E070E0892F807490E0A0E005
:1017D000B0E0880F991FAA1FBB1F481759076A0757
:1017E0007B0779F081E089838E010F5F1F4F21E035
:1017F00030E040E050E063E070E08DE090E00E9477
:1018000002042296E4E00C942E28A1E0B0E0EBE084
:10181000FCE00C940C2880E4898360E070E08EE0AA
:1018200090E00E94A1046B017C010E94B1105C0158
:1018300020E030E0A90160E070E08EE090E00E94DE
:1018400038058E010F5F1F4F21E030E040E050E08F
:1018500060E070E08DE090E00E94020428EF3FEF2E
:1018600047E254E260E070E08FE090E00E943805CB
:101870000E94CB0BA701960160E070E08EE090E043
:101880000E943805C5010E94B5101092A802219649
:10189000EAE00C942828A2E0B0E0E1E5FCE00C943A
:1018A0001128F82E0E94CB0BF0FE21C0198283E094
:1018B0008A838E010F5F1F4F22E030E040E050E04E
:1018C00060E070E08DE090E00E94020463E070E070
:1018D0008FE090E00E94E80488709470892BF1F406
:1018E00080E090E02296E5E00C942D2835C0198226
:1018F00081E08A838E010F5F1F4F22E030E040E0DD
:1019000050E060E070E08DE090E00E94020480E032
:1019100090E02296E5E00C942D281EC00E94050C54
:10192000F1FC07C08FEF9FEF2296E5E00C942D2885
:1019300013C0198281E08A838E010F5F1F4F22E05E
:1019400030E040E050E060E070E08DE090E00E9428
:1019500002048FEF9FEFDDCFA3E0B0E0E2EBFCE00D
:101960000C9410287C018E010D5F1F4F21E030E0A8
:1019700040E050E063E070E084E090E00E944904C1
:10198000E114F10429F58B818F7E8B83809198027D
:1019900090919902A0919A02B0919B02BF7E809390
:1019A000980290939902A0939A02B0939B028E01A1
:1019B0000D5F1F4F21E030E040E050E063E070E059
:1019C00084E090E00E9402042396E6E00C942C2828
:1019D000E982FA828E010F5F1F4F22E030E040E083
:1019E00050E060E070E08CE090E00E9402048B81A7
:1019F00080618B838091980290919902A0919A02C4
:101A0000B0919B02B061CBCFA2E0B0E0EAE0FDE094
:101A10000C94122889839A838E010F5F1F4F22E056
:101A200030E040E050E064E270E087E290E00E9445
:101A300002042296E4E00C942E28A1E0B0E0E3E258
:101A4000FDE00C940E286B017C0149830E94B110CB
:101A50008C0160E070E08EE090E00E94A10449817A
:101A6000411117C0A70196012095309540955095DA
:101A7000262337234823592360E070E08EE090E06E
:101A80000E943805C8010E94B5102196E8E00C9428
:101A90002A289B01AC012C293D294E295F29ECCF36
:101AA000A1E0B0E0E6E5FDE00C9410287C0182E0C6
:101AB00089838E010F5F1F4F21E030E040E050E04E
:101AC00060E070E08FE290E00E940204E114F10413
:101AD00079F081E089838E010F5F1F4F21E030E0B4
:101AE00040E050E060E070E08FE290E00E9402048D
:101AF0002196E6E00C942C28A1E0B0E0E2E8FDE0BD
:101B00000C94122880EE89838E010F5F1F4F21E015
:101B100030E040E050E063E070E086E390E00E9457
:101B2000020480EF89838E010F5F1F4F21E030E0B8
:101B300040E050E063E070E086E390E00E94020441
:101B40002196E4E00C942E28A4E0B0E0EAEAFDE05F
:101B50000C940A281092A002809197028093A6020A
:101B600060E070E08FE090E00E94A1046B017C01D6
:101B700060939C0270939D0280939E0290939F02BB
:101B80006330710520E88207910509F413C172FFE3
:101B900005C080919702882309F46EC0D6FE99C0D3
:101BA000D2FE4BC0E4FCD0C060E070E080E190E089
:101BB0000E94E8045C0104EA12E022E030E040E028
:101BC00050E060E070E081E190E00E944904809183
:101BD0008C02882309F413C123E0B222B092A3023D
:101BE000A092A202C3FE04C08091A40285FF6CC132
:101BF0008C2D88708093A102812C912C540182E05D
:101C00008093A002809197028111FDC0A7019601E7
:101C100022273F7644275527282939294A295B2935
:101C200060E070E08FE090E00E943805E091B10242
:101C3000F091B2023097C1F41AC08091980290914D
:101C40009902A0919A02B0919B02B5FF8CC00E94AC
:101C50007C0D1092A80283E08093A002E091B10273
:101C6000F091B202309719F08CE992E00995249630
:101C7000ECE00C94262886C1D701C60188279E7007
:101C8000AA27BB2781159E40A105B10509F486CF7F
:101C90000E94050C0E947C0D88EFC822DD24EE24F2
:101CA000FF248091980290919902A0919A02B0919C
:101CB0009B02B5FD32C183E08093A002E091B102A6
:101CC000F091B202309709F469CF8CE992E009955E
:101CD00065CFC7FC4BC0A70196012227332742706E
:101CE0005527E1FC73C0A70196012227307947727E
:101CF0005472211531054105510509F4B8CF60E052
:101D000070E08FE090E00E9438051092A802809168
:101D1000980290919902A0919A02B0919B02B5FF0E
:101D20000DC10E947C0DD4FCCBC0D7FC0AC1E0FEE3
:101D30000CC189E08093A002E091B102F091B2025F
:101D4000309709F091CF93CF0E94050C0E947C0D33
:101D50008091980290919902A0919A02B0919B0271
:101D6000B5FF79CF9CC00E94050C71CF28EF30E001
:101D700040E050E060E070E08FE090E00E943805C5
:101D80008091A102882359F01092A10280919702BC
:101D9000811105C08091A80281110E94050C81E08B
:101DA0008093A002E091AF02F091B002309709F069
:101DB0005BCF5DCF0E94050C0E947C0DA7019601B0
:101DC0002227332742705527E1FE8DCF60E070E077
:101DD0008FE090E00E94380584E08093A002E091BB
:101DE000B102F091B202309719F08CE992E00995B6
:101DF0001092A8022496ECE00C942628C3C0E89424
:101E0000A7F8BB24EBCE81E08B838E010C5F1F4FC4
:101E100021E030E040E050E063E070E08FE090E0EF
:101E20000E9449048C81482F407850E060E070E0C7
:101E3000807490E0A0E0B0E0880F991FAA1FBB1F3C
:101E4000481759076A077B0709F485C080919802F3
:101E500090919902A0919A02B0919B02B5FF4CC05B
:101E6000E091B102F091B202309719F08CE992E062
:101E7000099562E070E08FE090E00E94E80484FF42
:101E80002DC00E94050C0E947C0D809198029091BB
:101E90009902A0919A02B0919B02B5FFE8CE1982F7
:101EA00081E08A838E010F5F1F4F22E030E040E027
:101EB00050E060E070E08DE090E00E940204D7CE38
:101EC00088E08093A00238CF1092A1021092A8025D
:101ED000A8E08A2E912CA12CB12C91CE8E010D5F01
:101EE0001F4F21E030E040E050E063E070E08DE023
:101EF00090E00E940204BBCE198281E08A838E01A9
:101F00000F5F1F4F22E030E040E050E060E070E003
:101F10008DE090E00E940204A3CF198281E08A83C1
:101F20008E010F5F1F4F22E030E040E050E060E0A4
:101F300070E08DE090E00E94020430CE0E94050C1B
:101F4000F0CE83E08093A002F7CEF2FE15C08AE0C7
:101F50008093A002F1CEA701960122273076442774
:101F60005527282939294A295B2960E070E08FE04C
:101F700090E00E9438056ACFE5FEE3CF8BE08093C6
:101F8000A002DACE8EBD0DB407FEFDCF8EB508954A
:101F9000AF92BF92DF92EF92FF920F931F93CF9376
:101FA000DF9300D000D01F92CDB7DEB77C01D62ED4
:101FB00060E089E02A833B834C835D8379830E94C0
:101FC000E7242A813B814C815D817981E114F10410
:101FD000A1F0AD2CB72EEA0CFB1CF50181915F013D
:101FE0002A833B834C835D830E94C20F2A813B81FD
:101FF0004C815D81AE14BF0481F721153105410587
:102000005105D1F0780100E010E0F70181917F01E6
:102010002A833B834C835D830E94C20F0F5F1F4F57
:10202000C801A0E0B0E02A813B814C815D8182172C
:102030009307A407B50748F361E089E00E94E7240D
:1020400080E090E00F900F900F900F900F90DF9135
:10205000CF911F910F91FF90EF90DF90BF90AF90C5
:102060000895AF92BF92DF92EF92FF920F931F936A
:10207000CF93DF9300D000D01F92CDB7DEB77C01A5
:10208000D62E60E089E02A833B834C835D8379838D
:102090000E94E7242A813B814C815D817981E11492
:1020A000F104A1F0AD2CB72EEA0CFB1CF5018191D7
:1020B0005F012A833B834C835D830E94C20F2A8188
:1020C0003B814C815D81AE14BF0481F72115310540
:1020D00041055105D9F0780100E010E080E02A8345
:1020E0003B834C835D830E94C20FF70181937F0184
:1020F0000F5F1F4FC801A0E0B0E02A813B814C81F7
:102100005D8182179307A407B50740F361E089E07A
:102110000E94E72480E090E00F900F900F900F90C6
:102120000F90DF91CF911F910F91FF90EF90DF9073
:10213000BF90AF90089580E00E94EB0380E090E0B4
:1021400008950E94D4030E949B1080E090E00895BF
:1021500086E00E94EB0380E090E008950E94EB236C
:102160000895F89481E090E008957894089540915E
:10217000AE03141684F4209160033091610342038E
:10218000C001439F900D11240E94AC0C80E00E947E
:102190004B0C8EE008958FE0089522EC38EA49E870
:1021A0005DE20E94CC2520E034E244E759E40E943D
:1021B000CC250E9439260895CF92DF92EF92FF92AC
:1021C000CF93DF93EC01CB01BA010E94A12622EC50
:1021D00038EA49E85DE20E94652729EC38EE4EE8CE
:1021E0005DE40E9465276B017C01CC0FDD1FCC0FE5
:1021F000DD1FFE01E85EFA4FC082D182E282F382E7
:1022000020E030E0A901C701B6010E94C82587FD82
:1022100012C020E030E44CE956E4C701B6010E9448
:102220006127181644F0C85DDA4FC882D982EA8265
:10223000FB8281E001C080E0DF91CF91FF90EF90C1
:10224000DF90CF900895880F991F880F991FFC0188
:10225000E85EFA4F1082118212821382FC01E85D5F
:10226000FA4F108211821282138208959093140300
:10227000809313030895E9E3F4E08081108290E0F5
:10228000089580913A0490913B040895809142040E
:10229000909143040895109268031092690310927C
:1022A0006A0310926B0381E090E00E94500D10923F
:1022B00098038FEF9FEFADECBBEA809302049093FD
:1022C0000304A0930404B093050480930604909340
:1022D0000704A0930804B093090480930A04909320
:1022E0000B04A0930C04B0930D0480930E04909300
:1022F0000F04A0931004B0931104E2EEF3E0819375
:102300009193A193B19324E0E230F207C1F70895CD
:102310000E94E1040895A0E0B0E0E1E9F1E10C944D
:102320000A28EC018B01888180931D0389818093A9
:1023300022038981809321038A8180931E032B814C
:10234000209324038C8180931F038D81809320032D
:102350008E8180932303109225038F81988590931B
:10236000280380932703223021F481E08093260301
:1023700002C0109226038DE193E00E948B068881B3
:10238000823061F482EC8093290355E7C52E55E530
:10239000D52E55E3E52E55E1F52E0BC080EC80934C
:1023A000290348E4C42E48E2D42E48E0E42E4EE04F
:1023B000F42E80912603813049F4C0922A03D092F2
:1023C0002B03E0922C03F0922D0322C0DD24EE2497
:1023D000FF247E2D6D2D5C2D4427560199248824E1
:1023E000482959296A297B294C295D296E297F2989
:1023F000FC2CEE24DD24CC244C295D296E297F2978
:1024000040932A0350932B0360932C0370932D0366
:1024100090E00E94A10889E293E00E944F0580911C
:102420002E0390912F0301978E3F9F4F60F0EA811A
:10243000F0E0EE0FFF1FED56FE4F808191819093EB
:102440002F0380932E0380912E0390912F030E94DF
:10245000200580912E0390912F030E942C058091DE
:102460002E0390912F039093310380933003F80152
:1024700086819781AA2797FDA095BA2F80933A036A
:1024800090933B03A0933C03B0933D0384819581DB
:102490009093CD038093CC03208131813093CF037F
:1024A0002093CE03C901A0E0B0E080933E03909357
:1024B0003F03A0934003B0934103828193819093A3
:1024C000D1038093D003AC0142505109429FC00117
:1024D000439F900D529F900D1124A0E0B0E0809397
:1024E000D2039093D303A093D403B093D5038085F4
:1024F00091850E94031ECDB7DEB7ECE00C94262830
:102500008091BE0390E0089580E090E0089583708C
:102510009927880F991F880F991F885D9A4F20E08F
:1025200030E04AE754E4FC0160817181828193814B
:102530000E9465270E946E26CB01089526E030E0B8
:10254000FC013383228322E030E03183208380E06A
:1025500090E00E94AC0C80E090E00E94040D60E0EE
:1025600070E0CB010E943E0908950F931F93CF9313
:10257000DF93EC01FC01EB5AFF4F408151816281F6
:1025800073814F5F5F4F6F4F7F4F408351836283F3
:10259000738319861886088119810230110549F460
:1025A00086E090E09B838A8380E090E00E94AC0C00
:1025B0004CC08E819F8101301105F9F48230910564
:1025C00071F4FE01E755FF4F208120FD25C0FE017B
:1025D000E456FF4F21E020831B830A8323C0039727
:1025E000D9F40E94050CFE01E456FF4F81E0808380
:1025F0001B830A8382E090E015C08230910511F5BB
:102600008DA19EA1813020E8920779F4FE01E85562
:10261000FF4F808182FF12C081E090E09B838A831C
:1026200083E090E09D838C8310C081159048A1F7D2
:10263000FE01E855FF4F808181FDEECFCE010E9463
:102640009E1203C0039741F7F9CFDF91CF911F91FD
:102650000F9108958370833019F00E94B710089588
:102660008FE008950F931F93609164037091650349
:10267000809166039091670300915A0310915B0368
:1026800020915C0330915D03601B710B820B930BF7
:102690000E94560B81E00E944B0C892B89F080919F
:1026A000620390916303880F991F0E94AC0C80E035
:1026B0000E944B0C80916203909163030E94AC0CCA
:1026C0001F910F9108956F927F928F929F92AF9278
:1026D000BF92CF92DF92EF92FF920F933C016B017A
:1026E0008091AE03811108C080E090E00E94AC0CA4
:1026F00080E090E00E94040DD601A170BB27C0FECF
:1027000012C02091AE038091440481113EC080919B
:102710008D038330D1F191E080E0213009F090E029
:10272000E92FF82F02C0E0E0F0E020915203309151
:102730005303409154035091550360915603709197
:102740005703809158039091590308E00E945C2838
:1027500049015A0160916403709165038091660399
:1027600090916703680D791D8A1D9B1D609364031A
:10277000709365038093660390936703AB2B69F0B6
:102780003197B9F0672809F08BC080E090E00E9493
:10279000AC0C80E00E944B0C85C04091AE032091B0
:1027A0008D0330E0240F311D47FD3A95233031056C
:1027B00039F722E02093AD030E94560B83E00E947C
:1027C0005F0B892BA9F160E070E0CB010E943E090C
:1027D0001092AD0320915203309153034091540362
:1027E000509155036091560370915703809158039F
:1027F0009091590308E00E945C2849015A01880C15
:10280000991CAA1CBB1C8091640390916503A09144
:102810006603B0916703880E991EAA1EBB1E8092A4
:10282000640390926503A0926603B092670338C078
:10283000209152033091530340915403509155031A
:1028400060915603709157038091580390915903FA
:1028500008E00E945C2849015A018091640390912C
:102860006503A0916603B0916703880D991DAA1DA9
:10287000BB1D8093640390936503A0936603B0939C
:1028800067030E94AE106093090570930A05809358
:102890000B0590930C0581E0809308058CE003C044
:1028A0000E9432138EE00F91FF90EF90DF90CF9057
:1028B000BF90AF909F908F907F906F900895A0E011
:1028C000B0E0E5E6F4E10C941428A6964FADA69787
:1028D00020910605A5961FAEA59730E6329FC00150
:1028E0001124DC01AB5BBB4FFE01359601900D92CC
:1028F0003A95E1F7FC01EB5BFB4F40832F5F223001
:1029000019F02093060502C010920605E2E00C942F
:1029100030284F925F926F927F929F92AF92BF92B8
:10292000CF92DF92EF92FF920F931F93CF93DF939B
:10293000CDB7DEB7CD56D1090FB6F894DEBF0FBEC6
:10294000CDBF8E010F591F4F25E0D8011D922A954A
:10295000E9F7FC0194800E94AE106E8B7F8B888F0C
:10296000998FF1E09F12A7C0C8010E948104D8018D
:1029700011964C901197512C612C712C762C652C52
:10298000542C442412968C9190E0A0E0B0E0DC013D
:1029900099278827480E591E6A1E7B1EF8018081E0
:1029A000480E511C611C711C438150E060E070E0D6
:1029B000742F662755274427440E551E661E771E22
:1029C0004E865F86688A798AE481A301920160E07D
:1029D00070E0CB01A7964FAEA797A8963FAFA897F8
:1029E000A9964FAFA997AA965FAFAA97AB966FAF7C
:1029F000AB97AC967FAFAC97AD968FAFAD97AE96D9
:102A00009FAFAE972E2F30E040E050E060E070E0E6
:102A100080E090E000E20E94412859016A017B01B8
:102A20008C01A7962FADA797A8963FADA897A9961A
:102A30004FADA997AA965FADAA9760E070E080E0DD
:102A400090E00E9478282E833F83488759876A87C1
:102A50007B878C879D87452C562C672C77248E2F5F
:102A600090E0A0E0B0E0B82FAA2799278827480E69
:102A7000591E6A1E7B1E4A8A5B8A6C8A7D8A109266
:102A8000B00340919603509197035D834C83198264
:102A90001B829A826CE673E0CE014A960E948128DE
:102AA0009F924DB75EB7405651090FB6F8945EBF7E
:102AB0000FBE4DBF11C076E097121FC01D821C8251
:102AC00019829A829F928DB79EB7805691090FB650
:102AD000F8949EBF0FBE8DBFADB7BEB7119680E60E
:102AE000FE01319601900D928A95E1F70E945F14E4
:102AF0000FB6F894DEBF0FBECDBF10920805C359C4
:102B0000DF4F0FB6F894DEBF0FBECDBFDF91CF9180
:102B10001F910F91FF90EF90DF90CF90BF90AF90FB
:102B20009F907F906F905F904F900895A0E0B0E0ED
:102B3000ECE9F5E10C9414288091130390911403AF
:102B40008230910599F48091AE03181654F48150A7
:102B50008093AE0360E070E080E090E00E94631339
:102B600012C080E090E00E94AC0C02C0892B21F4DE
:102B700080E00E944B0C29C08091AE03815080936D
:102B8000AE030E94B7108F831D8284E48E83198662
:102B9000188684E08F938DB79EB7805691090FB643
:102BA000F8949EBF0FBE8DBFADB7BEB7119680E63D
:102BB000FE01359601900D928A95E1F70E945F140F
:102BC0000FB6F894DEBF0FBECDBFE2E00C94302804
:102BD000AEE6B0E0EEEEF5E10C9404288C014E0177
:102BE00021E6820E911C85E0D4011D928A95E9F7B9
:102BF0000E94AE106E8B7F8B888F998FF801848135
:102C0000823009F069C1868197819D838C8380859C
:102C10008F7D813469F481858C7C883881F467E00C
:102C2000362E79E0272EF2E0A796FFAFA7970DC0CA
:102C3000312C212C23E6A7962FAFA79706C0312C65
:102C4000212C33E6A7963FAFA797C4010E949104B9
:102C5000D80116966D917C91179740E050E0CE0117
:102C60004A960E947304F4014180512C612C712C0E
:102C7000762C652C542C4424828190E0A0E0B0E0B6
:102C8000DC0199278827480E591E6A1E7B1E808109
:102C9000480E511C611C711C838190E0A0E0B0E0E3
:102CA000B82FAA2799278827480E591E6A1E7B1E0F
:102CB0004E865F86688A798AE481A301920160E08A
:102CC00070E0CB01A8964FAEA897A9963FAFA99701
:102CD000AA964FAFAA97AB965FAFAB97AC966FAF84
:102CE000AC97AD967FAFAD97AE968FAFAE97AF96E0
:102CF0009FAFAF972E2F30E040E050E060E070E0F3
:102D000080E090E000E20E94412859016A017B01C5
:102D10008C01A8962FADA897A9963FADA997AA9622
:102D20004FADAA97AB965FADAB9760E070E080E0E7
:102D300090E00E9478282E833F83488759876A87CE
:102D40007B878C879D87452C562C672C77248E2F6C
:102D500090E0A0E0B0E0B82FAA2799278827480E76
:102D6000591E6A1E7B1E4A8A5B8A6C8A7D8A19827A
:102D7000A7963FADA7973A838FE08B83832D90E092
:102D8000FE01E80FF91F038DEAE1F0E0EC0FFD1FF3
:102D9000E80FF91F90812091AE038FEF820F80938F
:102DA000AE03EAE1F0E0EC0FFD1FE20DF11D8081C2
:102DB000823799F128F4803781F1813751F079C059
:102DC0008138F9F0823809F459C0833709F071C0AD
:102DD00055C08091440481116CC08091380390915A
:102DE00039038330904808F064C02093AE036DB778
:102DF0007EB7605671090FB6F8947EBF0FBE6DBFE7
:102E000048C02093AE03ADB7BEB7A056B1090FB608
:102E1000F894BEBF0FBEADBF3EC010E0102F00271C
:102E2000090F111DE091BE03E770F0E0E25FFA4F79
:102E300080818F5F8083C8010E942A138B83980151
:102E40002370332781E090E0022E01C0880F0A949E
:102E5000EAF79091BC03982B9093BC030370A02FCA
:102E6000AA0FAA0FA00FA95FB0E0AB58BC4F85E036
:102E7000F40101900D928A95E1F71BC02093AE03F7
:102E80002DB73EB7205631090FB6F8943EBF0FBE9E
:102E90002DBFADB7BEB7119680E6FE013196019009
:102EA0000D928A95E1F70E94961581E08093B00318
:102EB00055C081E08093B003A7965FADA7975F935D
:102EC0006DB77EB7605671090FB6F8947EBF0FBE1E
:102ED0006DBFADB7BEB722C0843059F59FE09B836C
:102EE00019828A831D821C821E821F82188619867F
:102EF0001A861B861C861D861E861F86188A198ABE
:102F00001A8A1B8A1C8A1D8A8F93ADB7BEB7A0563A
:102F1000B1090FB6F894BEBF0FBEADBF119680E6E3
:102F2000FE01319601900D928A95E1F70E945F149F
:102F300015C02DB73EB7205631090FB6F8943EBFE5
:102F40000FBE2DBFADB7BEB7119680E6FE0131961C
:102F500001900D928A95E1F70E9496150FB6F894AC
:102F6000DEBF0FBECDBFC259DF4FE2E10C94202877
:102F70001F93CF93DF939091050520E6929FF00178
:102F800011249F012D5E3C4FE901CE5CDE4F18817C
:102F9000111105C01092B3021092B40286C0D9017B
:102FA000AD5CBE4F4C914093B402D901AC5CBE4FB6
:102FB0004C914093B502D901AB5CBE4F4D915C91F1
:102FC0005093B7024093B602D901A95CBE4F4C9111
:102FD0004093B80211964C9111974093B902129602
:102FE0004C9112974093BA0213964C9113974093C9
:102FF000BB0214964C9114974093BC0215964C91C9
:1030000015974093BD0216964C9116974093BE02B9
:1030100017964C914093BF02D901A15CBE4F4D91D0
:103020005D916D917C914093C0025093C102609379
:10303000C2027093C302D901AD5BBE4F4D915D9149
:103040006D917C914093C4025093C5026093C60277
:103050007093C702D901A95BBE4F4D915D916D91EF
:103060007C914093C8025093C9026093CA02709346
:10307000CB02E25AFB4F42E4ACECB2E001900D927D
:103080004A95E1F71093B302F901EF56FE4F8083A2
:1030900018829F5F923019F09093050502C010923C
:1030A0000505809105058093070583EB92E0DF918C
:1030B000CF911F91089580ECE5E4F4E0DF011D92CB
:1030C0008A95E9F7109206051092050510920705FA
:1030D0000895CF93DF9382E090E090931403809360
:1030E000130310921603109215031092AF038FE092
:1030F00098E00E94750AEC0183E00E946A09CD2BDA
:1031000009F045C00E944B118AEC9EED90939A0302
:10311000809399031092AD031092B0031092B10303
:103120000E945B1888E0EEE8F3E0DF011D928A95CB
:10313000E9F71092DA031092DB031092DC0310928D
:10314000DD0380E090E00E94FF0880E090E00E94B4
:10315000C40841E060E870ED83E294E20E941D0D36
:10316000109208058FEF8093AE03EEE0F5E086EF56
:103170008193B5E0E631FB07D9F710926403109212
:103180006503109266031092670381E001C080E03E
:10319000DF91CF910895A0E6B0E0E1EDF8E10C9465
:1031A0001228E091070580E6E89FF0011124EB5B0F
:1031B000FB4F608170E083E193E00E94501A00971A
:1031C00019F460E070E0F7CF029709F041C0409138
:1031D000DA035091DB036091DC037091DD03809191
:1031E0003E0390913F03A0914003B09141030091B1
:1031F0003A0310913B0320913C0330913D03800F33
:10320000911FA21FB31F840F951FA61FB71F809386
:10321000B6039093B703A093B803B093B903409358
:10322000DE035093DF036093E0037093E103109299
:10323000DA031092DB031092DC031092DD0381E0CD
:103240008093B1031092B00310921C0310921B03E1
:103250008091B103813009F042C08091B0038111A7
:103260003EC00E94AE100091B2031091B3032091B2
:10327000B4033091B503601B710B820B930B00916B
:10328000B6031091B7032091B8033091B903061724
:1032900017072807390718F51092B1031D821C8201
:1032A000198284E88A8384E08F938DB79EB7805615
:1032B00091090FB6F8949EBF0FBE8DBFADB7BEB7D4
:1032C000119680E6FE01319601900D928A95E1F704
:1032D0000E945F140FB6F894DEBF0FBECDBF80E032
:1032E00090E0C05ADF4FE4E00C942E288091360322
:1032F000813081F4209132033091330340913403C3
:103300005091350360E070E08EE190E00E94380556
:1033100010923603089580913703813071F48091C3
:103320003003909131030E94200580912E039091EB
:103330002F030E942C05109237030895CF93DF933B
:10334000CEE2D3E0998388830E9420058881998109
:103350000E942C05DF91CF910895FC01E75AFF4FA1
:1033600021E42083FC01E65AFF4F28E82083FC017A
:10337000EA57FF4F30812181FC01E45AFF4F30832F
:10338000FC01E35AFF4F2083FC01E55AFF4F1082F6
:1033900008950F931F93CF93DF93EC018B01FC01F2
:1033A000ED57FF4F60E070E0808191810E946E05D3
:1033B0000130110549F4FE01EF5AFF4F6081718120
:1033C000828193810E94560BFE01E656FF4F808159
:1033D000802B0E945F0B892B81F40E94AE10FE01AE
:1033E000EA50FE4F6083718382839383CB50DE4F1C
:1033F00081E0888380E090E002C081E090E0DF918E
:10340000CF911F910F910895A0E0B0E0EAE0FAE1BA
:103410000C9404285B01542E452E8901EC01612C8B
:10342000712C812C912C22242394312CCC24CA94ED
:10343000DC2C9DECE92E9BEAF92E8A149B0451F1B9
:10344000488159816A817B814F3F8FEF58078DEC0E
:1034500068078BEA780779F49101082C01C0220FE4
:103460000A94EAF72095F801808182238083C401C1
:103470000E94231107C0C4010E94DC10813061F753
:10348000652C742CC992D992E992F992FFEF8F1AA8
:103490009F0AD3CFC301CDB7DEB7E2E10C94202859
:1034A000A8E1B0E0E6E5FAE10C9408284C013B0104
:1034B000DC011296ED91FC911397E930F10508F0CB
:1034C00099C3EE5BFF4F0C943B2888E190E00E948B
:1034D0009405F401EA57FF4F808191810E94C40551
:1034E000F40125A136A1C40185589F4FDC012D931D
:1034F0003C930E94F605F40185A196A1E55DFE4F7F
:10350000AC0160E070E040835183628373830E946A
:10351000DD0582E090E0D40115969C938E9314977C
:1035200081E090E013969C938E93129781E0F401D2
:10353000E456FF4F8083F401E555FF4F1082F401FC
:10354000E953FF4F10821182128213820E94F90305
:10355000C4010E94AD190E94AE10F401E156FF4F64
:10356000608371838283938345C38AE090E00E94E5
:10357000B817FC018081843009F057C1F40111862D
:103580001086E456FF4F1082D40114968D919C91C1
:10359000159713969C938E93129715961C921E92D4
:1035A00014970E94AE10F401E156FF4F60837183BF
:1035B0008283938388EB9BE00E943E240E948B19B8
:1035C0000E94761917C3FC01848195818230910590
:1035D000C1F5E456FF4F2081222399F1F401E5550E
:1035E000FF4F20812F5F2083D40119969C938E93E7
:1035F000189788E090E013969C938E93129734016D
:10360000B9EA6B0E711C930141E050E064E070E098
:10361000C40181519F4F0E94041AF401EA5DFE4FDC
:103620008083F3018081F401E655FF4F8083D3014D
:103630001C920E94AE10F401E15DFE4F7183608325
:10364000D9C2F4019383828315821482D3C28C0180
:1036500005551F4FD8018C91F401ED59FF4F808320
:1036600081E8F401EE59FF4F80838DE090E0340152
:10367000B3E86B0E711CF30191838083F401EB5767
:10368000FF4F808191E0980F9083F401E55AFF4F3E
:103690008083F401E558FF4F8081F401E05AFF4F29
:1036A0008083F401E458FF4F8081F401EF59FF4F0C
:1036B00080838FEFF401E25AFF4F8083F401E15AD7
:1036C000FF4F808340E050E0B401675A7F4F8DE0A8
:1036D00090E00E942D0468EC70E080E090E00E9491
:1036E0003E09D8018C918770F401E80FF11DE55077
:1036F000FE4F108284E0F401E556FF4F8083F40111
:10370000E35BFF4F80819181880F991F880F991F7C
:103710000E94AC0CF401E755FF4F1082F401E8550C
:10372000FF4F108282E0F401E656FF4F808360E095
:1037300070E0F301808191810E946E0582E00E9419
:103740005F0B85E090E0D40113969C938E931297C3
:1037500082E090E017969C938E93169781E090E01C
:1037600019969C938E93189745C2FC01E555FF4F1F
:103770008081F401ED59FF4F8083F401E755FF4F3D
:103780008081F401EE57FF4F808382E8F401EE5907
:10379000FF4F80838CE290E0F401ED57FF4F91835F
:1037A0008083F401EB57FF4F808191E0980F908365
:1037B000F401E55AFF4F808340E050E0B401675ABE
:1037C0007F4F8CE290E00E942D04F401E656FF4FFB
:1037D000108261E070E0C4010E94C919892BB1F523
:1037E00085E090E0D40113969C938E93129783E02A
:1037F00090E017969C938E93169781E0F401E4561F
:10380000FF4F808381E090E0F401F2C18BE090E013
:103810000E94B817FC018081813059F0843029F46E
:1038200081E0F401E955FF4F808381E090E0D4010D
:1038300097CFD40119961C921E9218971696ED9068
:10384000FC901797B3E0EB16F10451F481E090E09F
:10385000F4019383828382E090E095838483CAC1DC
:10386000840109551F4FD8018C91813051F4C40156
:103870000E94B512F8011082F401E656FF4F108243
:10388000B9C12581368147815085618572858385DF
:1038900094853401FAE86F0E711CD3012C931196B4
:1038A0003C93119712964C93129713965C9313972F
:1038B00014966C93149715967C93159716968C9383
:1038C000169717969C93B2E0EB16F10409F05CC0D2
:1038D000F401A7A4B0A8C1A8D2A8E3A8F4A805A998
:1038E00016A90E947828A32FF42E152FB62FAE7F8D
:1038F00020E03A2F70E080E090E008E00E945C2831
:10390000EF5AFF4F2083318342835383F401C38CEA
:10391000D48C960140E050E060E070E0CB01C98AB1
:103920003A8B4B8B5C8B6D8B7E8B8F8B988F20E0D3
:103930003A2F4F2D512F6B2F70E080E090E0A98837
:10394000BA88C12CD12CE12CF12C00E010E00E94AF
:10395000782829833A834B835C836D831E821F8280
:10396000188685E0FE013196D401A358BF4F01901F
:103970000D928A95E1F785E0F301D401AC59BF4F70
:1039800001900D928A95E1F7D40116968D919C9144
:1039900017970B9731F484E090E017969C938E93E1
:1039A000169786E090E0F40193838283612C712C5A
:1039B000F401E656FF4F8081811103C00E944B0C39
:1039C00001C0108281E090E0D40119969C938E93FF
:1039D000189787E090E013969C938E93129761144A
:1039E000710409F407C1B2E06B16710431F0E4E030
:1039F0006E16710409F4D2C0EAC08FE090E00E9414
:103A0000B8173C0188E0FE013996DF01282F1D928E
:103A10002A95E9F7FE013196DF011D928A95E9F7B3
:103A2000F401E356FF4F1082F301828D8C7C8838BD
:103A300009F09FC080A191A19A878987868D978D73
:103A40009A83898322A1203719F0223709F091C087
:103A5000D30199964C919997398512968C918C3017
:103A600051F485E090E0F401938382838AE090E052
:103A70009783868339C08E30B9F1D4018D919C91A2
:103A8000019731F4F401E755FF4F808180FD17C0A5
:103A9000F40185A196A18130F0E89F0739F4F40183
:103AA000E855FF4F808182FD0AC011C08115904802
:103AB00071F4F401E855FF4F808181FF08C083E075
:103AC00090E0D40113969C938E9312970DC081E0E1
:103AD00090E0F4019383828382E090E09583848375
:103AE00081E0E456FF4F8083203709F04EC04F5FDE
:103AF000F401E555FF4F80813370F40124E0329FDB
:103B0000E00DF11D1124481320C0E151FF4FD301F6
:103B100095964D915D916D917C91989740835183DD
:103B2000628373834F3F5F4F6D4C7B4A71F181E03D
:103B300090E0032E01C0880F0A94EAF7F401E755DC
:103B4000FF4F9081982B908320C0E151FF4F8081DF
:103B50009181A281B3818F3F9F4FAD4CBB4AA9F0A9
:103B60008FEF9FEFADECBBEA80839183A283B38399
:103B70000CC086E090E0D40113969C938E9312972C
:103B800060E070E0CB010E943E09F301818D85FF6A
:103B900031C080E190E00E94B8172CC081E190E034
:103BA0000E94B817DC0112968C918C3051F485E09C
:103BB00090E0F401938382838BE090E09783868387
:103BC00019C08F30B9F4C4010E94B51213C061143A
:103BD000710439F081E090E0D40119969C938E93A2
:103BE0001897F40180859185892B21F481E090E07C
:103BF00091878087D40118968D919C91199768962A
:103C0000EEE00C942428A4E0B0E0E9E0FEE10C949E
:103C100004281C01E0912403EE2359F0E13091F4D3
:103C200000EC802E0AE5902E0DE5A02E08E4B02EC3
:103C300010C010EB812E1AE5912E1DEDA12E19E476
:103C4000B12E07C0812CBDE49B2EB8E3AB2EB7E4A8
:103C5000BB2EF0E0EF59FE4F608170E0E0911F0352
:103C6000E450E13358F484E0E89FF0011124E75672
:103C7000FE4F208131814281538103C020E030E03A
:103C8000A901E0911E03882777FD8095982F29834D
:103C90003A834B835C83E13069F40E94A126298139
:103CA0003A814B815C810E9464252AEE3BE54EE718
:103CB0005FE30CC00E94A12629813A814B815C817F
:103CC0000E94642523EB31E442E85FE30E9465270C
:103CD0006B017C0120E030E0A901C501B4010E9424
:103CE000642520E030E04AE754E40E94CC259B01A3
:103CF000AC01C701B6010E9464252CED36E443E80F
:103D00005FE30E94CC250E946E262B013C018B01B3
:103D1000005F1F4FB101882777FD8095982F0E9483
:103D2000A1260E94CD102093420330934303409379
:103D30004403509345036093460370934703809375
:103D4000480390934903B10137FE02C06F5F7F4F74
:103D5000759567956C597F4F882777FD8095982FCB
:103D60000E94A1260E94CD1020934A0330934B035A
:103D700040934C0350934D0360934E0370934F0355
:103D8000809350039093510320E030E04AE754E4DD
:103D9000C501B4010E94CC259B01AC01C701B6014D
:103DA0000E9464250E946E2620912403645D7E4F4C
:103DB000211135C0E4E34E1AEDEF5E0A5092610323
:103DC000409260031093630300936203882777FD9A
:103DD0008095982F0E94A1260E94CD102093520317
:103DE0003093530340935403509355036093560309
:103DF000709357038093580390935903C701B601FA
:103E00000E94CD1008E00E945C2849015A016B0114
:103E10007C01F0E18F0E911CA11CB11C34C084EC1C
:103E2000481A8EEF580A5092610340926003109333
:103E3000630300936203882777FD8095982F0E9483
:103E4000A1260E94CD102093520330935303409338
:103E50005403509355036093560370935703809314
:103E6000580390935903C701B6010E94CD1008E092
:103E70000E945C2849015A016B017C01E0E18E0E31
:103E8000911CA11CB11C80925A0390925B03A092DA
:103E90005C03B0925D038CE291E090935F038093AA
:103EA0005E032496E2E10C942028909339038093DA
:103EB00038030895809138039091390308958091D3
:103EC0001503909116030895DC01ED91FC91048097
:103ED000F581E02D0995089584E98093BC008091D7
:103EE000BC0084FDFCCF08956093BC002091BC0011
:103EF00027FFFCCF2091B900287FFC012283089581
:103F0000662311F064E801C064EC0E94741F809184
:103F1000BB0008951F93CF93DF93EC01162F64EA43
:103F20000E94741F8A81883011F0803161F41093EF
:103F3000BB0064E8CE010E94741F9A8110FF05C087
:103F400081E0903429F080E003C081E09831D9F716
:103F5000DF91CF911F910895CF93DF93EC01609390
:103F6000BB0064E80E94741F81E09A81983209F0D6
:103F700080E0DF91CF91089521E632E0FC013183AA
:103F800020831092B90087E08093B800662341F047
:103F900061E082E10E94E72461E083E10E94E7247E
:103FA00008950E944A240E948C03C2E1D2E20E943A
:103FB000DE022097E1F30E941222F9CFA0E0B0E0E8
:103FC000E4EEFFE10C940E286C017A01EB01E60EA1
:103FD000F71E00E010E0CE15DF0561F06991D60113
:103FE000ED91FC910190F081E02DC6010995080F3B
:103FF000191FF1CFC801CDB7DEB7E8E00C942A282D
:104000006115710589F0DB010D900020E9F7AD0124
:1040100041505109461B570BDC01ED91FC91028088
:10402000F381E02D0995089580E090E00895EF92E6
:10403000FF920F931F93CF93DF938C01FB01C0E09E
:10404000D0E064917F018FEFE81AF80A662361F0EF
:10405000D801ED91FC910190F081E02DC801099506
:10406000C80FD91FF701EDCFCE01CDB7DEB7E6E01F
:104070000C942C280E9400200895DC01ED91FC9105
:104080000190F081E02D099508950F931F93CF9330
:10409000DF93EC016DE00E943D208C016AE0CE01CF
:1040A0000E943D20800F911FDF91CF911F910F91B2
:1040B00008950F931F93CF93DF93EC010E94172075
:1040C0008C01CE010E944520800F911FDF91CF917E
:1040D0001F910F910895A1E2B0E0E1E7F0E20C94A6
:1040E0000A287C01C42EE52FCB01D22E19A221E093
:1040F0002D1510F02AE0D22E8E010F5D1F4F8D2C52
:10410000912CA12CB12C6C2D7E2FA50194010E9425
:10411000E2278C2DD29E80191124015011098A307A
:1041200014F4805D01C0895CF8018083211531059C
:104130004105510521F0C22EE32FCA01E4CFB80199
:10414000C7010E940020A196ECE00C942628A0E074
:10415000B0E0EDEAF0E20C940E28EC016A017B017C
:104160002115310541F4E881F9810190F081E02DBC
:10417000642F09951DC02A303105A9F477FF12C0BC
:104180006DE20E943D208C0144275527BA014C194D
:104190005D096E097F092AE0CE010E946B20800F25
:1041A000911F06C02AE0B701A601CE010E946B2034
:1041B000CDB7DEB7E8E00C942A280F931F93CF9376
:1041C000DF93EC019A01AB01662757FD6095762FCE
:1041D0000E94A7208C01CE010E944520800F911FD4
:1041E000DF91CF911F910F9108952115310549F469
:1041F000DC01ED91FC910190F081E02D642F099597
:1042000008950E946B2008959A01462F50E060E0C7
:1042100070E00E94F52008950F931F93CF93DF93D2
:10422000EC019A01462F50E060E070E00E94F5201A
:104230008C01CE010E944520800F911FDF91CF910C
:104240001F910F9108959A01AB0160E070E00E9408
:10425000F52008950F931F93CF93DF93EC019A01FC
:10426000AB0160E070E00E94F5208C01CE010E945D
:104270004520800F911FDF91CF911F910F910895DD
:10428000FC0124853585F901E05CFF4F8081918137
:10429000F901EE5BFF4F20813181821B930B8F73FD
:1042A00099270895FC0184859585FC01E05CFF4F0A
:1042B00040815181FC01EE5BFF4F2081318142172B
:1042C000530741F00190F081E02DE80FF91F808144
:1042D00090E008958FEF9FEF0895FC018485958508
:1042E000FC01E05CFF4F40815181FC01EE5BFF4F20
:1042F000208131814217530779F0A081B181A80F45
:10430000B91F8C91208131812F5F3F4F2F7333274D
:104310003183208390E008958FEF9FEF0895FC0193
:1043200081A1882329F0A489B5898C9186FFFBCFD0
:1043300011A20895CF93DF93FC0126853785D9011B
:10434000A05CBF4F8D919C91119701968F73992717
:10435000E901CE5BDF4F4881598184179507D9F376
:104360000D90BC91A02DA20FB31F6C93A685B785AD
:10437000A05CBF4F11969C938E93A689B7892C9110
:1043800081E090E0078C02C0880F991F0A94E2F741
:10439000282B2C9381E081A30488F589E02D80816E
:1043A0008064808381E090E0DF91CF91089508954B
:1043B0001F920F920FB60F9211242F933F934F939A
:1043C0008F939F93EF93FF938091C00082FD1CC059
:1043D0004091C6008091DE059091DF0501968F73B4
:1043E00099272091E0053091E1058217930771F03C
:1043F000E091DE05F091DF05E256FA4F408390939D
:10440000DF058093DE0502C08091C600FF91EF9129
:104410009F918F914F913F912F910F900FBE0F90D1
:104420001F90189588E395E00E944021892B11F098
:104430000E94D72108951F920F920FB60F92112458
:104440002F933F938F939F93EF93FF9320919A0520
:1044500030919B0580919C0590919D052817390707
:1044600031F48091C1008F7D8093C10014C0E09130
:104470009C05F0919D05E65AFA4F208180919C059C
:1044800090919D0501968F73992790939D05809338
:104490009C052093C600FF91EF919F918F913F91D2
:1044A0002F910F900FBE0F901F901895CF92DF9213
:1044B000EF92FF92CF93DF93EC016A017B01EC89CD
:1044C000FD8981E090E008A002C0880F991F0A943E
:1044D000E2F7808360EC76EC8DE290E0A701960134
:1044E0000E94E2272150310941095109569547950B
:1044F00037952795211580E1380798F0EC89FD89DB
:10450000108260E673EE86E190E0A70196010E94BA
:10451000E2272150310941095109569547953795B0
:104520002795E889F9893083EA89FB89208319A2D4
:10453000EE89FF89408181E090E09C010C8C02C0F3
:10454000220F331F0A94E2F7422B4083EE89FF8942
:1045500040819C010D8C02C0220F331F0A94E2F7A8
:10456000422B4083EE89FF8940819C010E8C02C062
:10457000220F331F0A94E2F7422B4083EE89FF8912
:1045800020810F8C02C0880F991F0A94E2F7809552
:1045900082238083DF91CF91FF90EF90DF90CF90C7
:1045A000089510923B0510923A0588EE93E0A0E042
:1045B000B0E080933C0590933D05A0933E05B093F9
:1045C0003F058FE692E090933905809338058EE998
:1045D00095E090934505809344058AE595E0909396
:1045E00047058093460585EC90E0909349058093BC
:1045F000480584EC90E090934B0580934A0580EC4D
:1046000090E090934D0580934C0581EC90E0909361
:104610004F0580934E0582EC90E090935105809376
:10462000500586EC90E0909353058093520584E00A
:104630008093540583E08093550587E08093560569
:1046400085E08093570581E0809358050895823076
:10465000E8F4E82FF0E0EE0FFF1FEE51FA4F718300
:104660006083813041F0809169008C7F842B80933E
:104670006900E89A089580916900440F551F440F1E
:10468000551F837F842B80936900E99A08951F92B8
:104690000F920FB60F9211242F933F934F935F9376
:1046A0006F937F938F939F93AF93BF93EF93FF93FA
:1046B0008091E2059091E305892B29F0E091E205D4
:1046C000F091E3050995FF91EF91BF91AF919F9113
:1046D0008F917F916F915F914F913F912F910F90AB
:1046E0000FBE0F901F9018951F920F920FB60F924A
:1046F00011242F933F934F935F936F937F938F93E7
:104700009F93AF93BF93EF93FF938091E4059091B4
:10471000E505892B29F0E091E405F091E50509957F
:10472000FF91EF91BF91AF919F918F917F916F9189
:104730005F914F913F912F910F900FBE0F901F905F
:1047400018951F920F920FB60F9211242F933F933B
:104750008F939F93AF93BF938091E7059091E80566
:10476000A091E905B091EA053091E6052DE2230F0D
:104770002D3720F40196A11DB11D05C020EB230F9C
:104780000296A11DB11D2093E6058093E705909345
:10479000E805A093E905B093EA058091EB059091B7
:1047A000EC05A091ED05B091EE050196A11DB11D9E
:1047B0008093EB059093EC05A093ED05B093EE0587
:1047C000BF91AF919F918F913F912F910F900FBE0D
:1047D0000F901F9018952FB7F8946091E70570918E
:1047E000E8058091E9059091EA052FBF08959FB7EC
:1047F000F8944091EB055091EC056091ED057091B6
:10480000EE0586B5A89B06C08F3F21F04F5F5F4F36
:104810006F4F7F4F9FBF2227342F452F562F280FD2
:10482000311D411D511DA5E0B0E00E94D72708951C
:10483000CF92DF92EF92FF92CF93DF936B017C01D7
:104840000E94F723EB01C114D104E104F10479F0D3
:104850000E94F7236C1B7D0B683E7340A0F381E040
:10486000C81AD108E108F108C851DC4FECCFDF913C
:10487000CF91FF90EF90DF90CF9008958130910518
:1048800041F00297009729F0880F991F019701972F
:10489000F1F70895789484B5826084BD84B5816011
:1048A00084BD85B5826085BD85B5816085BDEEE638
:1048B000F0E0808181608083E1E8F0E01082808117
:1048C00082608083808181608083E0E8F0E0808185
:1048D00081608083E1EBF0E0808184608083E0EBA5
:1048E000F0E0808181608083EAE7F0E0808184608D
:1048F00080838081826080838081816080838081E9
:10490000806880831092C1000895833081F028F47C
:10491000813099F08230A1F008958630A9F0873077
:10492000B9F08430D1F4809180008F7D03C08091F4
:1049300080008F7780938000089584B58F7702C0C0
:1049400084B58F7D84BD08958091B0008F7703C0BA
:104950008091B0008F7D8093B0000895CF93DF9356
:1049600090E0FC01E35AFE4F2491FC01EF58FE4F0A
:104970008491882349F190E0880F991FFC01E75644
:10498000FE4FA591B49181579E4FFC01C591D491E2
:104990009FB7611108C0F8948C91209582238C9365
:1049A000888182230AC0623051F4F8948C91322FAE
:1049B000309583238C938881822B888304C0F8945C
:1049C0008C91822B8C939FBFDF91CF910895A1E0B2
:1049D000B0E0EDEEF4E20C941228282F30E0F9015B
:1049E000E75BFE4F8491F901E35AFE4F1491F90100
:1049F000EF58FE4F04910023C9F0882321F069830A
:104A00000E9485246981E02FF0E0EE0FFF1FE1573F
:104A1000FE4FA591B4919FB7F8948C91611103C09A
:104A20001095812301C0812B8C939FBF2196E4E0D8
:104A30000C942E28CF93DF93282F30E0F901E75B09
:104A4000FE4F8491F901E35AFE4FD491F901EF58DA
:104A5000FE4FC491CC2391F081110E948524EC2F4C
:104A6000F0E0EE0FFF1FEB57FE4FA591B4912C9194
:104A70002D2381E090E021F480E002C080E090E00E
:104A8000DF91CF9108958093020108958E3008F050
:104A90008E5087702091020190E4299F900111248B
:104AA000822B80937C0080917A00806480937A00CE
:104AB00080917A0086FDFCCF80917800209179006A
:104AC00090E0922B08955058BB27AA270ED0BFC163
:104AD000B0D130F0B5D120F031F49F3F11F41EF485
:104AE00095C10EF4E095E7FB8BC1E92FC1D180F3AE
:104AF000BA17620773078407950718F071F49EF5DB
:104B0000D9C10EF4E0950B2EBA2FA02D0B01B901DF
:104B100090010C01CA01A0011124FF27591B99F033
:104B2000593F50F4503E68F11A16F040A22F232F3F
:104B3000342F4427585FF3CF469537952795A7958F
:104B4000F0405395C9F77EF41F16BA0B620B730B36
:104B5000840BBAF09150A1F0FF0FBB1F661F771FA7
:104B6000881FC2F70EC0BA0F621F731F841F48F45C
:104B7000879577956795B795F7959E3F08F0B3CFE2
:104B80009395880F08F09927EE0F979587950895CC
:104B900013D108F481E008950CD059C151D140F0EF
:104BA00048D130F021F45F3F19F02AC1511183C17F
:104BB0002DC15ED198F39923C9F35523B1F3951B09
:104BC000550BBB27AA2762177307840738F09F5F2E
:104BD0005F4F220F331F441FAA1FA9F333D00E2E9D
:104BE0003AF0E0E830D091505040E695001CCAF70A
:104BF00029D0FE2F27D0660F771F881FBB1F2617CF
:104C000037074807AB07B0E809F0BB0B802DBF01A1
:104C1000FF2793585F4F2AF09E3F510568F0F0C080
:104C20004AC15F3FECF3983EDCF386957795679534
:104C3000B795F7959F5FC9F7880F911D9695879552
:104C400097F90895E1E0660F771F881FBB1F621771
:104C500073078407BA0720F0621B730B840BBA0B2F
:104C6000EE1F88F7E0950895BEE304D008F490E8BD
:104C70000895BFE322273327A90102D158F19F5796
:104C800040F1B91738F1BFE3B91B9927B8503AF48E
:104C9000660F771F881F991FB395D2F316C0B850BF
:104CA0004AF0232F342F452F562F672F782F882730
:104CB000B850BAF7B85F49F08695779567955795DC
:104CC000479537952795BA95B9F70EF4A2D08894F1
:104CD0000895889460E070E0CB01089504D0689452
:104CE000B111E9C00895CCD088F09F5790F0B92F4A
:104CF0009927B751A0F0D1F0660F771F881F991F31
:104D00001AF0BA95C9F712C0B13081F0D3D0B1E032
:104D10000895D0C0672F782F8827B85F39F0B93F42
:104D2000CCF3869577956795B395D9F73EF4909532
:104D30008095709561957F4F8F4F9F4F0895E894B0
:104D400009C097FB3EF490958095709561957F4FD3
:104D50008F4F9F4F9923A9F0F92F96E9BB27939581
:104D6000F695879577956795B795F111F8CFFAF491
:104D7000BB0F11F460FF1BC06F5F7F4F8F4F9F4FC2
:104D800016C0882311F096E911C0772321F09EE820
:104D9000872F762F05C0662371F096E8862F70E086
:104DA00060E02AF09A95660F771F881FDAF7880F60
:104DB0009695879597F90895990F0008550FAA0BB6
:104DC000E0E8FEEF16161706E807F907C0F012161E
:104DD0001306E407F50798F0621B730B840B950B21
:104DE00039F40A2661F0232B242B252B21F4089576
:104DF0000A2609F4A140A6958FEF811D811D089513
:104E000097F99F6780E870E060E008959FEF80EC7D
:104E10000895909580957095609550954095309542
:104E200021953F4F4F4F5F4F6F4F7F4F8F4F9F4F9A
:104E3000089500240A941616170618060906089500
:104E400000240A9412161306140605060895092E66
:104E50000394000C11F4882352F0BB0F40F4BF2BD5
:104E600011F460FF04C06F5F7F4F8F4F9F4F089515
:104E700057FD9058440F551F59F05F3F71F047950B
:104E8000880F97FB991F61F09F3F79F087950895F0
:104E9000121613061406551FF2CF4695F1DF08C00F
:104EA000161617061806991FF1CF8695710561052C
:104EB00008940895E894BB2766277727CB0197F9D4
:104EC00008957ADF08F48FEF08950BD0C0CFB1DFDB
:104ED00028F0B6DF18F0952309F092CF97CF112470
:104EE000EACFC6DFA0F3959FD1F3950F50E0551F91
:104EF000629FF001729FBB27F00DB11D639FAA272F
:104F0000F00DB11DAA1F649F6627B00DA11D661F7D
:104F1000829F2227B00DA11D621F739FB00DA11D9E
:104F2000621F839FA00D611D221F749F3327A00D58
:104F3000611D231F849F600D211D822F762F6A2FF4
:104F400011249F5750408AF0E1F088234AF0EE0F79
:104F5000FF1FBB1F661F771F881F91505040A9F786
:104F60009E3F510570F04CCFA6CF5F3FECF3983ECB
:104F7000DCF3869577956795B795F795E7959F5FED
:104F8000C1F7FE2B880F911D9695879597F9089587
:104F9000A29FB001B39FC001A39F700D811D11247A
:104FA000911DB29F700D811D1124911D08950E94C5
:104FB000C827A59F900DB49F900DA49F800D911DB3
:104FC00011240895A1E21A2EAA1BBB1BFD010DC0DE
:104FD000AA1FBB1FEE1FFF1FA217B307E407F507A9
:104FE00020F0A21BB30BE40BF50B661F771F881F85
:104FF000991F1A9469F760957095809590959B011B
:10500000AC01BD01CF0108952F923F924F925F9264
:105010006F927F928F929F92AF92BF92CF92DF92C8
:10502000EF92FF920F931F93CF93DF93CDB7DEB72D
:10503000CA1BDB0B0FB6F894DEBF0FBECDBF0994C1
:105040002A88398848885F846E847D848C849B8418
:10505000AA84B984C884DF80EE80FD800C811B8126
:10506000AA81B981CE0FD11D0FB6F894DEBF0FBE55
:10507000CDBFED010895EE0FFF1F0590F491E02DD7
:1050800009940F93083090F0982F872F762F652F73
:10509000542F432F322F22270850F4CF220F331FD3
:1050A000441F551F661F771F881F991F0A95B2F767
:1050B0000F91089597FB10F8169400080F9308308D
:1050C00098F00850232F342F452F562F672F782F15
:1050D000892F902DF4CF05949795879577956795AF
:1050E00057954795379527950A95AAF70F910895F3
:1050F0002A0D3B1D4C1D5D1D6E1D7F1D801F911FC8
:105100000895FB01DC0102C001900D924150504016
:08511000D8F70895F894FFCFD1
:105118000100010201000408020121040201020445
:1051280014000081000501000308020121040501A3
:105138000203140000810020001C000A0018011856
:1051480001204E0A000A0064006400C4091C000A19
:105158000018011801204E0A000A0064006400C407
:105168000987008D000A00160001000600010002F0
:105178000040100807A9022570889B88D8BC7007D2
:105188000400091E080540082609104008560805AD
:105198004008261D040008BE1D040008BE000001CA
:1051A8000203040005224034400000804200000051
:1051B8000000000000000000000000804400000023
:1051C8000000000000000000000000804500000012
:1051D80000000000000000000000000000000000C7
:1051E8000000000000000000000000004300000074
:1051F8000000000000000000000000C044000000A3
:105208000000000000000000000000000000000096
:105218000000000000000000000000000000000086
:1052280000000000000000000000008043000000B3
:105238000000000000000000000000004500000021
:105248000000000000000000000000000000000056
:105258000000000000000000000000000000000046
:1052680000000000000000000000000044000000F2
:1052780000801F641F8A1F6C1FAC1F000000009A6B
:0C52880021DE1F40216D2152218F2100EA
:00000001FF
